:100000000C9465000C943B070C9414070C948D0021
:100010000C948D000C948D000C948D000C948D002C
:100020000C948D000C948D000C948D000C948D001C
:100030000C948D000C948D000C948D000C948D000C
:100040000C94CE060C948D000C949C060C947606B1
:100050000C948D000C948D000C948D000C948D00EC
:100060000C948D000C948D00430C450C470C490CEE
:100070004B0C4E0C510C540C0000000024002700C7
:100080002A0000000000250028002B0004040404BE
:100090000404040402020202020203030303030332
:1000A000010204081020408001020408102001020F
:1000B00004081020000000080002010000030407EB
:1000C0000000000000000000770C11241FBECFEFDD
:1000D000D8E0DEBFCDBF15E0A0E0B1E0E4E1FFE194
:1000E00002C005900D92A438B107D9F726E0A4E824
:1000F000B5E001C01D92A439B207E1F710E0C5E6F2
:10010000D0E004C02197FE010E94620FC436D107DF
:10011000C9F70E9462070C94880F0C940000E7EF67
:10012000F5E0A089B18982E08C93A485B5851C9205
:10013000A685B7858FE48C93108EA489B58986E057
:100140008C93A289B3898C9180618C93A289B389A5
:100150008C9188608C93A289B3898C9180688C93F0
:100160000288F389E02D80818F7D80830895EEEBF6
:10017000F0E02491EAEAF0E09491E6E9F0E0E4911D
:10018000EE2309F43BC0222339F1233091F038F4F7
:100190002130A9F0223001F524B52F7D12C027307F
:1001A00091F02830A1F02430B9F4209180002F7D07
:1001B00003C0209180002F77209380000DC024B5CC
:1001C0002F7724BD09C02091B0002F7703C0209164
:1001D000B0002F7D2093B000F0E0EE0FFF1FEE5730
:1001E000FF4FA591B4912FB7F894EC91811103C002
:1001F00090959E2301C09E2B9C932FBF0895CF9274
:10020000DF92EF92FF920F931F93CF93DF936C01D6
:100210007A018B01C0E0D0E0CE15DF0589F0D8016E
:100220006D918D01D601ED91FC910190F081E02D51
:10023000C6010995892B11F47E0102C02196ECCFED
:10024000C701DF91CF911F910F91FF90EF90DF9049
:10025000CF900895FC01918D828D981761F0828D69
:10026000DF01A80FB11D5D968C91928D9F5F9F73EA
:10027000928F90E008958FEF9FEF0895FC01918D8C
:10028000828D981731F0828DE80FF11D858D90E0F9
:1002900008958FEF9FEF0895FC01918D228D892F96
:1002A00090E0805C9F4F821B91098F73992708957E
:1002B00087EF95E00E944C0121E0892B09F420E0B2
:1002C000822F0895FC01848DDF01A80FB11DA35A70
:1002D000BF4F2C91848D90E001968F739927848F66
:1002E000A689B7892C93A089B1898C9180648C935D
:1002F000938D848D981306C00288F389E02D808148
:100300008F7D80830895EF92FF920F931F93CF9379
:10031000DF93EC0181E0888F9B8D8C8D981305C055
:10032000E889F989808185FD24C0F62E0B8D10E0C7
:100330000F5F1F4F0F731127E02E8C8DE8120CC03A
:100340000FB607FCFACFE889F989808185FFF5CFE0
:10035000CE010E946201F1CF8B8DFE01E80FF11DED
:10036000E35AFF4FF0820B8FEA89FB89808180621C
:1003700007C0EE89FF896083E889F98980818064FC
:10038000808381E090E0DF91CF911F910F91FF90EA
:10039000EF900895CF93DF93EC01888D8823C9F007
:1003A000EA89FB89808185FD05C0A889B9898C917E
:1003B00086FD0FC00FB607FCF5CF808185FFF2CF19
:1003C000A889B9898C9185FFEDCFCE010E94620189
:1003D000E7CFDF91CF91089580E090E0892B29F05D
:1003E0000E94580181110C9400000895CF93DF936F
:1003F00090E0FC01E056FF4F2491FC01E457FF4FD1
:100400008491882361F190E0880F991FFC01E858DE
:10041000FF4FC591D491FC01EE57FF4FA591B491C8
:10042000611109C09FB7F894888120958223888341
:10043000EC912E230BC0623061F49FB7F8943881A1
:10044000822F809583238883EC912E2B2C939FBF42
:1004500006C08FB7F894E8812E2B28838FBFDF91D9
:10046000CF9108958E3008F08E508770806480930D
:100470007C0080917A00806480937A0080917A0079
:1004800086FDFCCF809178002091790090E0922B3E
:1004900008959FB7F8944091890550918A0560911D
:1004A0008B0570918C0586B5A89B06C08F3F21F007
:1004B0004F5F5F4F6F4F7F4F9FBF762F652F542F3A
:1004C00044279A01AB01280F311D411D511DA3E0A6
:1004D000B0E00E94D90C08958F929F92AF92BF9284
:1004E000CF92DF92EF92FF920E9449024B015C0192
:1004F00084E6C82ED12CE12CF12C0E944902DC01AB
:10050000CB0188199909AA09BB09883E9340A10526
:10051000B10558F021E0C21AD108E108F10888EECF
:10052000880E83E0981EA11CB11CC114D104E10403
:10053000F10419F7FF90EF90DF90CF90BF90AF904C
:100540009F908F90089508958091C1059091C20564
:100550008130910589F01CF4892B39F0089582309F
:10056000910589F00397B1F0089528988BB18470B4
:100570008BB9599A5D9A089528988BB184708BB97C
:10058000599A5E9A089528988BB184708BB9599ABC
:100590005F9A089528988BB184708BB9599A289ADC
:1005A00008958091C505811190C08091A905882387
:1005B00009F46CC020914F0130915001EFE2F1E05D
:1005C000DF0180E090E04D915D914217530791F477
:1005D000880F991FDC01A15DBE4F2FEF3FEF2D93D8
:1005E0003C93DC01A053BA4F2091CE0530E02D930F
:1005F0003C9309C001968031910529F704C041E080
:10060000EF34F40741F08191919197FDF8CF81E0AB
:100610008093CF0508951092CF0510929205809196
:10062000C0058130F9F060F0823041F51092870505
:1006300010928605109291051092900581E01AC0E3
:100640008FE090E090938705809386058091C105A7
:100650009091C20590939105809390051092840526
:1006600081E00AC0109287051092860510929105CC
:1006700010929005809384058093000129988FEF54
:100680009FEF90935201809351010895EFE2F1E0C2
:10069000A0EDB5E02FEF3FEF4081518180914F01F8
:1006A000909150014817590749F431832083809174
:1006B000CE0590E011969C938E93299832961296CF
:1006C00081E0EF34F80741F70895E1E0F1E080E0E0
:1006D00090E0219131912F3F3F4F61F4880F991F96
:1006E000FC01EF5FFE4F80914F019091500191838B
:1006F0008083089501968031910559F708958EBD44
:1007000000000DB407FEFDCF8EB50895CF92DF92A5
:10071000EF92FF92CF93DF931F92CDB7DEB7BC016C
:10072000990F880B990B0E942C0E20912901309172
:100730002A0140912B0150912C010E94BD0E6B01AA
:100740007C01E0919005F0919105EE0FFF1FE559B6
:10075000FE4F80819181BC01990F880B990B0E94FB
:100760002C0E9B01AC01C701B6010E94BD0E0E9478
:10077000F40DDB0177FD07C0A11580E1B8072CF06F
:10078000AFEFBFE002C0A0E0B0E08091BE05909165
:10079000BF0502973CF420E03AE00E94680F0E94F7
:1007A0002C0E13C06091CE0570E080E090E00E94B6
:1007B0002C0E24EF39EF40E052E40E94BD0E20E001
:1007C00030E040E255E40E94BD0E20E038EF40E208
:1007D00055E40E94820D0E94F40D2A9880ED870F47
:1007E00069830E947F036981862F0E947F032A9A72
:1007F0000F90DF91CF91FF90EF90DF90CF90089511
:10080000CF93DF931F92CDB7DEB7A091CB05B09108
:10081000CC058A0F9B1FE0919005F0919105EE0F9A
:10082000FF1FED59FE4F20813181DC01A20FB31F64
:10083000B7FF02C0A0E0B0E020E03AE00E94680FFD
:100840000E942C0E20E038EF40E255E40E94820D19
:100850000E94F40D2A9880E5870F69830E947F0328
:100860006981862F0E947F032A9A0F90DF91CF9192
:1008700008950F931F93CF93DF93C0918605D09176
:100880008705AE01440F551F80E090E0C031D105CF
:100890000CF06BC0FC01E40FF51FE15DFE4F208101
:1008A000318137FD2BC0FE01EE0FFF1FE053FA4FE1
:1008B00080818093CE05220F331F220F331FF90151
:1008C000ED57FC4F808191819093CA058093C905B3
:1008D000F901ED57FE4F0081118110938F050093B0
:1008E0008E050E940004C8010E948603C0938505FE
:1008F0002196D0938705C093860537C00296CF30E6
:10090000D10589F510928705109286058091900592
:100910009091910501969093910580939005209177
:10092000C1053091C20528173907D4F48091C0055C
:10093000823091F430939105209390058091850544
:1009400090E00197909387058093860581E08093DE
:1009500084050E94EC0409C0109291051092900544
:100960000E94390402C0219691CF80918605909112
:100970008705409764F11092870510928605809153
:100980009005909191050196909391058093900523
:100990002091C1053091C20528173907C4F4809110
:1009A000C005823081F430939105209390058091A9
:1009B000850590E00197909387058093860581E0F7
:1009C0008093840504C01092910510929005DF91E8
:1009D000CF911F910F9108950F931F93CF93DF93A2
:1009E0008091860590918705019679F48FE090E0DB
:1009F000909387058093860580919005909191054D
:100A000001979093910580939005C0918605D091B0
:100A10008705AE01440F551F80E090E0D7FD6AC006
:100A2000FC01E40FF51FE15DFE4F2081318137FDB0
:100A30002BC0FE01EE0FFF1FE053FA4F8081809321
:100A4000CE05220F331F220F331FF901ED57FC4F44
:100A5000808191819093CA058093C905F901ED5772
:100A6000FE4F0081118110938F0500938E050E9427
:100A70000004C8010E948603C09385052197D09386
:100A80008705C093860536C00297209789F58FE0C9
:100A900090E09093870580938605809190059091D2
:100AA00091050197909391058093900597FF1DC044
:100AB0008091C005823089F41092910510929005C2
:100AC0008091850590E00196909387058093860537
:100AD000109284050E9439040DC08091C105909147
:100AE000C20590939105809390050E94EC0402C08A
:100AF000219794CF809186059091870597FF2CC010
:100B00008FE090E090938705809386058091900513
:100B1000909191050197909391058093900597FF8F
:100B20001BC08091C005823079F41092910510921B
:100B300090058091850590E00196909387058093BC
:100B400086051092840508C08091C1059091C20568
:100B50009093910580939005DF91CF911F910F9114
:100B600008958091A905813011F580919205813019
:100B7000F1F4909100019130B9F48091C005813079
:100B800019F40E9439040CC0811103C00E94EC04C6
:100B900007C0823029F480918405882391F3F6CF31
:100BA000299A1092000108952998809300010895D0
:100BB000CF938091A905813009F066C0809192059C
:100BC000813009F061C080915101909152010196EC
:100BD00090935201809351012091F305213019F532
:100BE0003091F20531111FC0809100018130B9F4BC
:100BF0008091C005813019F40E9439040CC0811124
:100C000003C00E94EC0407C0823029F4809184055F
:100C1000882391F3F6CF299A1092000135C02998C4
:100C20002093000131C0E0912501F0912601EE0FE3
:100C3000FF1FED5AFE4FC08141816C2F742F0E941F
:100C40004E0F0097A9F48091C005813019F40E94DD
:100C500039040CC0811103C00E94EC0407C082302B
:100C600029F480918405882391F3F6CF299A0CC04A
:100C70002C2F342F37FF02C02F5F3F4F359527951C
:100C80008217930709F42998E0912501F091260134
:100C9000EE0FFF1FED5AFE4F20915101309152018E
:100CA000808191812817390741F48091F3058111E2
:100CB00004C01092520110925101CF910895809179
:100CC000BE059091BF058130910561F01CF4892B20
:100CD00039F008958230910519F0039719F00895BD
:100CE0000C94B1050C94D8050E94830F1F920F92AB
:100CF0000FB60F9211242F933F934F935F936F93EF
:100D00007F938F939F93AF93BF93EF93FF9387EF5F
:100D100095E00E946201FF91EF91BF91AF919F9189
:100D20008F917F916F915F914F913F912F910F9094
:100D30000FBE0F901F9018951F920F920FB60F9233
:100D400011242F938F939F93EF93FF93E0910706C6
:100D5000F09108068081E0910D06F0910E0682FD6B
:100D600012C09081809110068F5F8F7320911106C1
:100D7000821751F0E0911006F0E0E950FA4F958F9C
:100D80008093100601C08081FF91EF919F918F9118
:100D90002F910F900FBE0F901F9018951F920F92DA
:100DA0000FB60F9211242F933F938F939F93AF937E
:100DB000BF938091930590919405A0919505B09172
:100DC00096053091880526E6230F2D3728F029EE69
:100DD000230F0196A11DB11D2093880580939305D3
:100DE00090939405A0939505B093960580918905FD
:100DF00090918A05A0918B05B0918C050196A11D5B
:100E0000B11D8093890590938A05A0938B05B093BB
:100E10008C05BF91AF919F918F913F912F910F9032
:100E20000FBE0F901F9018951F920F920FB60F9242
:100E300011242F933F934F935F936F937F938F93DF
:100E40009F93AF93BF93EF93FF93E0912301F091B2
:100E500024010995FF91EF91BF91AF919F918F91DF
:100E60007F916F915F914F913F912F910F900FBEA6
:100E70000F901F9018951F920F920FB60F9211248A
:100E80002F933F934F935F936F937F938F939F9392
:100E9000AF93BF93EF93FF93E0912101F091220173
:100EA0000995FF91EF91BF91AF919F918F917F91A4
:100EB0006F915F914F913F912F910F900FBE0F90C7
:100EC0001F901895CF93DF9300D000D0CDB7DEB739
:100ED000789484B5826084BD84B5816084BD85B515
:100EE000826085BD85B5816085BD80916E00816021
:100EF00080936E00109281008091810082608093C7
:100F000081008091810081608093810080918000C8
:100F10008160809380008091B10084608093B100F3
:100F20008091B00081608093B00080917A008460ED
:100F300080937A0080917A00826080937A00809119
:100F40007A00816080937A0080917A008068809333
:100F50007A001092C1000E948F0061E083E00E943D
:100F6000F60161E084E00E94F60161E081E00E9408
:100F7000F60161E085E00E94F60161E086E00E94F2
:100F8000F60161E087E00E94F60161E088E00E94DE
:100F9000F60161E089E00E94F60161E08AE00E94CA
:100FA000F60160E081E10E94F60160E082E10E94CA
:100FB000F60160E083E10E94F60160E080E10E94BA
:100FC000F60160E082E00E94F60160E08CE00E94A1
:100FD000F6010E948F00FFB6F89480918D05811173
:100FE00026C0E6E9F0E08491EAEAF0E09491E82F87
:100FF000F0E0EE0FFF1FE858FF4FA591B491EC9180
:10100000E92319F481E00E94B70061E08AE00E94C0
:10101000F6018CB580618CBD8CB580648CBD61E0BF
:101020008DE00E94F60161E08BE00E94F601809164
:101030008D058F5F80938D05FFBE8CB58F7D8CBD38
:101040008CB5837F8CBD8CB583608CBD8DB58E7F58
:101050008DBD80917A008E7F80937A0080917A0096
:101060008D7F80937A0080917A00846080937A00EB
:101070008091C100877F8093C10080E00E94B7000B
:1010800080E50E947F0380E00E947F0381E00E9450
:10109000B7001092C2051092C1050E94A4020E94DE
:1010A0006C02EE24E394F12CF092C205E092C105AB
:1010B0000E94A4020E946C0272E0A72EB12CB09292
:1010C000C205A092C1050E94A4020E946C0283E0A6
:1010D00090E09093C2058093C1050E94A4020E94F3
:1010E0006C02B092C205A092C1050E94A4020E94A7
:1010F0006C02F092C205E092C1050E94A4020E9417
:101100006C021092C2051092C1050E94A4020E94B6
:101110006C02F092C205E092C1050E94A4020E94F6
:101120006C02B092C205A092C1050E94A4020E9466
:101130006C02E3E0EE2EF12CF092C205E092C105C4
:101140000E94A4020E946C0241E0E41AF108A0F798
:101150008FE00E943202880F892F881F990B90938D
:101160002601809325018EE00E943202892F880F8C
:10117000880B9093C1058093C20586B182FB8827B6
:1011800080F98093F30586B185FB882780F98093E9
:10119000A90586B188718093A80590E033E0959504
:1011A00087953A95E1F78093C0058FE596E0909397
:1011B000220180932101809169008C7F826080935D
:1011C0006900E89A80E090E00E94A40C90E090937F
:1011D000BF058093BE05DD24D39488248A944FE311
:1011E000942EA12CB12C55E0E52EF12C87EF95E043
:1011F0000E944C01181619060CF007C287EF95E003
:101200000E942A018093F6052091F4053091F5059E
:101210002230310509F4E0C044F421153105D9F03C
:101220002130310509F45AC0F0C12430310509F4E8
:101230003CC10CF4E9C02530310509F0E6C19C0140
:1012400033273093BF052093BE05682F80E090E0E0
:101250000E94AC0CD6C199278039910519F481E020
:1012600090E00BC08038910519F4E2E0F0E00FC087
:10127000803E910539F483E090E09093F5058093EA
:10128000F405C3C1803B910539F4E4E0F0E0F0934C
:10129000F505E093F405B9C1803C910529F4F0927D
:1012A000F505E092F405B1C1883F910559F48091AC
:1012B000F3058111AAC18091F2058111A6C10E9496
:1012C000D805A3C18A5F9109029708F09EC18FEFEC
:1012D0009FEF909352018093510197C120914F014C
:1012E000309150012F3FEFEF3E0701F59927909382
:1012F000500180934F01EFE2F1E020E030E04191B6
:1013000051914F3F5F4F61F4F901EE0FFF1FE15D17
:10131000FE4F918380833093F1052093F00575C1D2
:101320002F5F3F4F2031310551F76FC137FD6DC140
:101330009927E091F005F091F105EE0FFF1FE053C2
:10134000FA4F918380834091CF05411102C0D09222
:10135000CF054091A90541111FC08093CE05220FF2
:10136000331F220F331FF901ED57FC4F808191810C
:101370009093CA058093C905F901ED57FE4F60802F
:10138000718070928F0560928E050E940004C301E7
:101390000E948603299A31C080919205811113C061
:1013A0008091C005882339F0833068F4109291054C
:1013B0001092900508C08091C1059091C20590934C
:1013C000910580939005D0929205EFEFFFEFF09397
:1013D0005001E0934F0115C120914F013091500110
:1013E0002F3F3F4F31F499279093500180934F0145
:1013F0000CC18093CE050E94D1028FEF9FEF909396
:10140000500180934F01FDC02091CD0599272130D7
:1014100009F044C09695982F882797958795209135
:101420002D0130912E01822B932BBC017052072E7F
:10143000000C880B990B0E942C0E20EB32E549EA38
:1014400051E40E94820D0E94F40D7093CC056093CC
:10145000CB05CB01770FAA0BBB0BBC01CD01660FEF
:10146000771F881F991FA50194010E94BA0CCA0119
:10147000B9010E942C0E6093290170932A01809378
:101480002B0190932C018091C9059091CA050E946F
:1014900000041092C8051092CD05B3C090932E01A0
:1014A00080932D01D092CD05B0C0209127013091BD
:1014B00028012F3FEFEF3E0731F499279093280141
:1014C00080932701A2C037FDA0C02C015524509263
:1014D000C7054092C6051092F5051092F405203418
:1014E000310589F5F0E44F1651044CF0D092C50552
:1014F0008FEF9FEF909328018093270124C0809164
:10150000C5058130D1F41092C505EFEFFFEFF093E0
:101510002801E0932701EFE26E2EE1E07E2EF30139
:101520008FEF9FEF819391933F010E94D1029FE43F
:10153000691691E0790699F706C0EFEFFFEFF09397
:101540002801E0932701809127019091280140977D
:10155000F9F42091F305C20174E0959587957A9589
:10156000E1F79093260180932501211107C08FEFA9
:101570009FEF90932801809327010AC05092C405E1
:101580004092C305EFEFFFEFF0932801E0932701AE
:101590008091270190912801419781F4C20165E073
:1015A000959587956A95E1F79093C2058093C1055B
:1015B0008FEF9FEF9093280180932701809127015F
:1015C000909128014297B9F4B201550C880B990B00
:1015D0000E942C0E20E030E04AE752E40E94820D87
:1015E0000E94FB0D6093C005EFEFFFEFF093280121
:1015F000E093270106C08FEF9FEF9093280180931F
:1016000027011092F5051092F40586B182FB222481
:1016100020F8312C2092F3058FE02328D9F40E9482
:101620003202880F892F881F990B9093BD058093F4
:10163000BC052091BA053091BB058217930709F4C8
:101640008AC090932601809325019093BB058093D7
:10165000BA0581C00E9432029C019093BD0580931F
:10166000BC058091BA059091BB05AC014F5F5F4FFF
:101670004217530724F0019728173907ACF4C90122
:10168000880F892F881F990B90932601809325013D
:10169000C901B7010E944E0F7093C4056093C30542
:1016A0003093BB052093BA056091C3057091C405C2
:1016B0006F5F7F4F8FEF97E00E944E0F072E000C59
:1016C000880B990B0E942C0E6093B6057093B7059A
:1016D0008093B8059093B9052FB7F894609193055E
:1016E0007091940580919505909196052FBF0E9469
:1016F0002A0E2B013C016093B2057093B3058093D1
:10170000B4059093B5052091B6053091B705409189
:10171000B8055091B9056091AE057091AF05809103
:10172000B0059091B1050E94160D9B01AC01C3015B
:10173000B2010E94B80E181674F48091F20581115E
:101740000AC04092AE055092AF056092B00570920B
:10175000B1050E94D80583B1829581708093F2050E
:101760008EE00E943202092F192F110F110B1093D6
:10177000AD050093AC058091AA059091AB050817C3
:10178000190741F01093C2050093C1051093AB05F2
:101790000093AA0586B185FB882780F98093A90567
:1017A00086B1887190E023E0959587952A95E1F7B9
:1017B0008093A8052091A705281721F08093C005E4
:1017C0008093A7050E9449026093A3057093A40526
:1017D0008093A5059093A60540909F055090A00585
:1017E0006090A1057090A205A301920124543D4F81
:1017F0004F4F5F4F261737074807590758F469833B
:101800007A838B839C830E94A40269817A818B8175
:101810009C8105C0641575058605970540F46093A5
:101820009F057093A0058093A1059093A2050E9447
:10183000490260939B0570939C0580939D0590934E
:101840009E0540909705509098056090990570907E
:101850009A05A301920128513C4F4F4F5F4F261725
:1018600037074807590798F5E0912501F0912601BF
:10187000E830F105D8F4EC5CFF4F28988BB1847008
:101880008BB90C94620F5B9A07C05B9A08C05B9A95
:1018900009C05B9A0AC05C9A5D9A08C05C9A5E9A1D
:1018A00005C05C9A5F9A02C05C9A289A80919B0559
:1018B00090919C05A0919D05B0919E058093970500
:1018C00090939805A0939905B0939A050DC064155F
:1018D00075058605970540F4609397057093980504
:1018E0008093990590939A050E94EC017FCCE7EFD5
:1018F000F5E01382128288EE93E0A0E0B0E08483EA
:101900009583A683B78387E791E09183808385ECF5
:1019100090E09587848784EC90E09787868780ECB9
:1019200090E0918B808B81EC90E0938B828B82ECAA
:1019300090E0958B848B86EC90E0978B868B118E54
:10194000128E138E148E0895F999FECF92BD81BD2B
:10195000F89A992780B50895262FF999FECF1FBAD6
:1019600092BD81BD20BD0FB6F894FA9AF99A0FBEC8
:1019700001960895052E97FB1EF400940E94D10C49
:1019800057FD07D00E94E40C07FC03D04EF40C94E2
:10199000D10C50954095309521953F4F4F4F5F4F5B
:1019A000089590958095709561957F4F8F4F9F4FCB
:1019B00008950E94060DA59F900DB49F900DA49FC1
:1019C000800D911D11240895A1E21A2EAA1BBB1BA4
:1019D000FD010DC0AA1FBB1FEE1FFF1FA217B307FB
:1019E000E407F50720F0A21BB30BE40BF50B661F11
:1019F000771F881F991F1A9469F7609570958095D5
:101A000090959B01AC01BD01CF010895A29FB0014B
:101A1000B39FC001A39F700D811D1124911DB29F22
:101A2000700D811D1124911D08955058BB27AA27C0
:101A30000E942D0D0C947E0E0E94700E38F00E94B4
:101A4000770E20F039F49F3F19F426F40C946D0EB4
:101A50000EF4E095E7FB0C94670EE92F0E948F0EC1
:101A600058F3BA17620773078407950720F079F4D3
:101A7000A6F50C94B10E0EF4E0950B2EBA2FA02D06
:101A80000B01B90190010C01CA01A0011124FF272B
:101A9000591B99F0593F50F4503E68F11A16F04026
:101AA000A22F232F342F4427585FF3CF4695379525
:101AB0002795A795F0405395C9F77EF41F16BA0BEA
:101AC000620B730B840BBAF09150A1F0FF0FBB1F98
:101AD000661F771F881FC2F70EC0BA0F621F731FE1
:101AE000841F48F4879577956795B795F7959E3F3E
:101AF00008F0B0CF9395880F08F09927EE0F9795CF
:101B0000879508950E94960D0C947E0E0E94770E84
:101B100058F00E94700E40F029F45F3F29F00C94B9
:101B2000670E51110C94B20E0C946D0E0E948F0E24
:101B300068F39923B1F3552391F3951B550BBB27FC
:101B4000AA2762177307840738F09F5F5F4F220F41
:101B5000331F441FAA1FA9F335D00E2E3AF0E0E838
:101B600032D091505040E695001CCAF72BD0FE2F82
:101B700029D0660F771F881FBB1F26173707480716
:101B8000AB07B0E809F0BB0B802DBF01FF279358CE
:101B90005F4F3AF09E3F510578F00C94670E0C941D
:101BA000B20E5F3FE4F3983ED4F386957795679540
:101BB000B795F7959F5FC9F7880F911D9695879503
:101BC00097F90895E1E0660F771F881FBB1F621722
:101BD00073078407BA0720F0621B730B840BBA0BE0
:101BE000EE1F88F7E09508950E94FB0D6894B111EF
:101BF0000C94B20E08950E94970E88F09F5798F0AB
:101C0000B92F9927B751B0F0E1F0660F771F881F01
:101C1000991F1AF0BA95C9F714C0B13091F00E941B
:101C2000B10EB1E008950C94B10E672F782F88277C
:101C3000B85F39F0B93FCCF3869577956795B39542
:101C4000D9F73EF490958095709561957F4F8F4FB1
:101C50009F4F0895E89409C097FB3EF490958095B6
:101C6000709561957F4F8F4F9F4F9923A9F0F92F62
:101C700096E9BB279395F695879577956795B795E0
:101C8000F111F8CFFAF4BB0F11F460FF1BC06F5FC6
:101C90007F4F8F4F9F4F16C0882311F096E911C0D8
:101CA000772321F09EE8872F762F05C0662371F0F9
:101CB00096E8862F70E060E02AF09A95660F771F0D
:101CC000881FDAF7880F9695879597F9089597F901
:101CD0009F6780E870E060E008959FEF80EC0895D2
:101CE00000240A94161617061806090608950024FB
:101CF0000A9412161306140605060895092E039475
:101D0000000C11F4882352F0BB0F40F4BF2B11F4E8
:101D100060FF04C06F5F7F4F8F4F9F4F089557FD47
:101D20009058440F551F59F05F3F71F04795880F49
:101D300097FB991F61F09F3F79F0879508951216E0
:101D400013061406551FF2CF4695F1DF08C016168C
:101D500017061806991FF1CF86957105610508943D
:101D60000895E894BB2766277727CB0197F9089554
:101D70000E942A0F08F48FEF08950E94D00E0C9451
:101D80007E0E0E94700E38F00E94770E20F0952390
:101D900011F00C94670E0C946D0E11240C94B20E7D
:101DA0000E948F0E70F3959FC1F3950F50E0551F61
:101DB000629FF001729FBB27F00DB11D639FAA27A0
:101DC000F00DB11DAA1F649F6627B00DA11D661FEF
:101DD000829F2227B00DA11D621F739FB00DA11D10
:101DE000621F839FA00D611D221F749F3327A00DCA
:101DF000611D231F849F600D211D822F762F6A2F66
:101E000011249F5750409AF0F1F088234AF0EE0FCA
:101E1000FF1FBB1F661F771F881F91505040A9F7F7
:101E20009E3F510580F00C94670E0C94B20E5F3FFC
:101E3000E4F3983ED4F3869577956795B795F79533
:101E4000E7959F5FC1F7FE2B880F911D96958795AB
:101E500097F90895990F0008550FAA0BE0E8FEEFD7
:101E600016161706E807F907C0F012161306E4075E
:101E7000F50798F0621B730B840B950B39F40A2657
:101E800061F0232B242B252B21F408950A2609F435
:101E9000A140A6958FEF811D811D089597FB072E08
:101EA00016F4009407D077FD09D00E946F0F07FC4D
:101EB00005D03EF4909581959F4F0895709561955A
:101EC0007F4F0895EE0FFF1F0590F491E02D0994C8
:101ED0000E94060DB7FF0895821B930B0895AA1B5D
:101EE000BB1B51E107C0AA1FBB1FA617B70710F005
:101EF000A61BB70B881F991F5A95A9F78095909537
:101F0000BC01CD01089581E090E0F8940C94880F15
:041F1000F894FFCF73
:101F140001FFFFFFFFFFFFFFFFFFFFFFFFFFFFFFCB
:101F2400FFFFFFFFFFFFFFFFFFFFFFFFFFFFFFFFBD
:101F3400FFA302A3020300FFFF0000803F4000FF55
:101F4400FFFFFFFFFFFFFFFFFFFFFFFFFFFFFFFF9D
:101F5400FFFFFFFFFFFFFFFFFFFFFFFFFFFFFFFF8D
:101F6400FFFFFF6000300018000C000800060004AA
:101F74000003000000830106038904010002000439
:101F8400000800000000008301FF004C012A013E0C
:101F940001CA010F0000001000000011000000122F
:101FA40000000013000000140000001600000017D9
:101FB400000000180000001A0000001B0000001DB3
:101FC4000000001E00000020000000220000002489
:101FD40000000026000000290000002B0000002E55
:101FE400000000300000003300000036000000391B
:101FF4000000003D000000400000004400000048D4
:102004000000004D00000051000000560000005B7D
:1020140000000061000000660000006C0000007316
:102024000000007A00000081000000890000009197
:1020340000000099000000A3000000AC000000B6FE
:10204400000000C1000000CD000000D9000000E63F
:10205400000000F300000002010000110100002252
:102064000100003301000045010000580100006D2B
:102074000100008301000099010000B2010000CCBE
:10208400010000E7010000040200002302000043F5
:10209400020000660200008A020000B1020000DAB9
:1020A40002000005030000330300006403000097EE
:1020B400030000CE0300000804000045040000866D
:1020C400040000CB0400001405000061050000B307
:1020D4000500000A06000066060000C70600002F7F
:1020E4000700009C070000100800008A0800000C8C
:1020F40009000096090000280A0000C30A000067CE
:102104000B0000140C0000CC0C00008F0D00005DCF
:102114000E0000380F0000FF0F0000FF0F0000FF4B
:102124000F0000FF0F0000FF0F0000FF0F0000FF73
:102134000F0000FF0F0000FF0F0000FF0F0000FF63
:102144000F0000FF0F0000FF0F0000FF0F0000FF53
:102154000F0000FF0F0000FF0F0000FF0F0000FF43
:102164000F0000FF0F0000FF0F0000FF0F0000FF33
:102174000F0000FF0F0000FF0F0000FF0F0000FF23
:102184000F0000FF0F0000FF0F0000FF0F0000FF13
:102194000F0000000000002000000040000000616B
:1021A40000000081000000A1000000C1000000E266
:1021B400000000020100002201000042010000634F
:1021C40001000083010000A3010000C3010000E43A
:1021D4000100000402000024020000440200006523
:1021E40002000085020000A5020000C5020000E60E
:1021F40002000006030000260300004603000067F7
:1022040003000087030000A7030000C7030000E8E1
:1022140003000008040000280400004804000069CA
:1022240004000089040000A9040000C9040000EAB5
:102234000400000A0500002A0500004A0500006A9F
:102244000500008B050000AB050000CB050000EB8A
:102254000500000C0600002C0600004C0600006C73
:102264000600008D060000AD060000CD060000ED5E
:102274000600000E0700002E0700004E0700006E47
:102284000700008F070000AF070000CF070000EF32
:10229400070000100800003008000050080000701B
:1022A40008000091080000B1080000D1080000F106
:1022B40008000012090000320900005209000072EF
:1022C40009000093090000B3090000D3090000F3DA
:1022D400090000140A0000340A0000540A000074C3
:1022E4000A0000950A0000B50A0000D50A0000F5AE
:1022F4000A0000150B0000360B0000560B00007698
:102304000B0000960B0000B70B0000D70B0000F782
:102314000B0000170C0000380C0000580C0000786B
:102324000C0000980C0000B90C0000D90C0000F956
:102334000C0000190D00003A0D00005A0D00007A3F
:102344000D00009A0D0000BB0D0000DB0D0000FB2A
:102354000D00001B0E00003C0E00005C0E00007C13
:102364000E00009C0E0000BD0E0000DD0E0000FDFE
:102374000E00001D0F00003E0F00005E0F00007EE7
:102384000F00009E0F0000BF0F0000DF0F0000FFD2
:042394000F00000036
:00000001FF
